:1007E000006C0000000700005EF800000000000040
:1007F00000000000000000000000000000000000F9
:1008000078FFE4B8200118F6D8F99000007F007E48
:1008100007E4F0A3DFFCDEFA75816E022933121FB4
:100820006812257990021F7401F02202324A74AADC
:100830007583F5758255A574557583FA7582AAA5D9
:1008400074A57583F5758255A5220002236B90402F
:100850007FE493FF64326003EF7002002253A87FAD
:100860000080FD021D971214E574911215F27416A2
:10087000121487E4F0A37402F02200023247E70961
:10088000F608DFFA8046E709F208DFFA803E888240
:100890008C83E709F0A3DFFA8032E309F608DFFA78
:1008A0008078E309F208DFFA807088828C83E3099C
:1008B000F0A3DFFA806489828A83E0A3F608DFFA76
:1008C000805889828A83E0A3F208DFFA804C80D2C4
:1008D00080FA80C680D4806980F28033801080A640
:1008E00080EA809A80A880DA80E280CA8033898298
:1008F0008A83ECFAE493A3C8C582C8CCC583CCF044
:10090000A3C8C582C8CCC583CCDFE9DEE7800D89EA
:10091000828A83E493A3F608DFF9ECFAA9F0EDFBF1
:100920002289828A83ECFAE0A3C8C582C8CCC58339
:10093000CCF0A3C8C582C8CCC583CCDFEADEE88092
:10094000DB89828A83E493A3F208DFF980CC88F004
:10095000EF60010E4E60C388F0ED2402B404005035
:10096000B9F582EB2402B4040050AF23234582235F
:100970009008CE73EF8DF0A4A8F0CF8CF0A428CE11
:100980008DF0A42EFE22C2D5EC30E709B2D5E4C327
:100990009DFDE49CFCEE30E715B2D5E4C39FFFE477
:1009A0009EFE120BF2C3E49DFDE49CFC8003120B3F
:1009B000F230D507C3E49FFFE49EFE22C5F0F8A302
:1009C000E028F0C5F0F8E582158270021583E03862
:1009D000F022BB010A89828A83E0F5F0A3E022506D
:1009E0000687F009E71922BBFE07E3F5F009E319D2
:1009F0002289828A83E493F5F074019322BB010774
:100A000089828A830209BC500B09C5F027F7C5F01B
:100A10001937F722BBFE0D09F8E325F0F3C5F019ED
:100A2000E338F322F889828A8374019325F0C5F0B4
:100A3000F8E4933822BB010A89828A83F0E5F0A3A7
:100A4000F0225006F709A7F01922BBFE06F3E5F0E5
:100A500009F3192275F008758200EF2FFFEE33FEBF
:100A6000CD33CDCC33CCC58233C5829BED9AEC9986
:100A7000E58298400CF582EE9BFEED9AFDEC99FC28
:100A80000FD5F0D6E4CEFBE4CDFAE4CCF9A882226F
:100A9000B800C1B90059BA002DEC8BF084CFCECD8F
:100AA000FCE5F0CBF97818EF2FFFEE33FEED33FDC8
:100AB000EC33FCEB33FB10D703994004EB99FB0FAD
:100AC000D8E5E4F9FA227818EF2FFFEE33FEED3384
:100AD000FDEC33FCC933C910D7059BE99A4007ECFC
:100AE0009BFCE99AF90FD8E0E4C9FAE4CCFB227543
:100AF000F010EF2FFFEE33FEED33FDCC33CCC833D7
:100B0000C810D7079BEC9AE899400AED9BFDEC9A38
:100B1000FCE899F80FD5F0DAE4CDFBE4CCFAE4C8B0
:100B2000F922EB9FF5F0EA9E42F0E99D42F0EC6479
:100B300080C864809845F022EB9FF5F0EA9E42F071
:100B4000E99D42F0E89C45F022E8600FECC313FCFD
:100B5000ED13FDEE13FEEF13FFD8F122ECF0A3ED41
:100B6000F0A3EEF0A3EFF022A8828583F0D083D02B
:100B700082120B7F120B7F120B7F120B7FE473E448
:100B800093A3C583C5F0C583C8C582C8F0A3C58338
:100B9000C5F0C583C8C582C822EC8EF0A4CCC5F0D0
:100BA000CCCDF8EFA4CEC5F02DFDE43CFCE8A42E9E
:100BB000C8C5F03DFDE43CFCEFA4FFE5F028FEE4F1
:100BC0003DFDE43CFC22EF4E6012EF60010EEDBBF8
:100BD000010B89828A83F0A3DFFCDEFA2289F050C0
:100BE00007F709DFFCA9F022BBFEFCF309DFFCA933
:100BF000F022BC000BBE0029EF8DF084FFADF02287
:100C0000E4CCF875F008EF2FFFEE33FEEC33FCEE8A
:100C10009DEC984005FCEE9DFE0FD5F0E9E4CEFD7D
:100C200022EDF8F5F0EE8420D21CFEADF075F00850
:100C3000EF2FFFED33FD4007985006D5F0F222C3A9
:100C400098FD0FD5F0EA22208A0302100A900222B2
:100C5000E07002A3E0600302100A900220E070023C
:100C6000A3E0600302100A90016FE07002A3E0604D
:100C70000302100A12156F600302100A900134E09B
:100C8000703090011F1213B2FFAEF090010D1213DD
:100C9000B2D39FE5F09E400302100A1214C5E490FF
:100CA000017BF0A3F012161F900226121640F56B7E
:100CB0008003756B00756C1EE4F5B2F5BA90017F88
:100CC000E0F553A3E0F554C209758D20438D2075DE
:100CD0008D8043AA08D2AF758B02758EAF20062493
:100CE00012156F701F200C1CE5DB20E217758AC4FB
:100CF000200C0DE5DB20E20875870300000080066C
:100D0000D2098002D209758B11758A5053AAF7D384
:100D1000900221E09490900220E09401400EA3E024
:100D20002470F0900220E034FEF08007E49002206E
:100D3000F0A3F0D390022DE0949090022CE0940167
:100D4000400EA3E02470F090022CE034FEF0800707
:100D5000E490022CF0A3F012302D900055E025E035
:100D600025E0902EC3F0A3E4F0A3F012141D5399D4
:100D70007F1208661214EF902EC0E030E2F9902E38
:100D8000C0E4F0902E02E0F56DA3E0F56E43890219
:100D90001214234380021214EC902EC0E030E2F9CA
:100DA000121654F522A3E0F523E56E2527FFE56D25
:100DB0003526FEC3EF9523F525EE9522F524121571
:100DC000CEE5259FE5249E40048E248F25902EC4D9
:100DD000E4F0439980900165E524F0A3E525F0C394
:100DE000E5549525FFE5539524FE1232288E558F44
:100DF000561216934003020FE0AE24AF257C007D0F
:100E00000F120B9912169DAF6AAE69AD68AC679070
:100E100002D31213F4FBD3120B389002D3401712F3
:100E2000152A956AFFEE9569FEED9568FDEC9567CC
:100E3000FC12169D8007120B6800000000E47F6022
:100E40007EEAFDFC9002D31213F4FBD3120B384060
:100E50000A9002D3120B680000EA601213AF7D09FA
:100E600012158A9002D31213F47B0A12143E121642
:100E70009D900134E07042AE53AF54FC7D09120BDB
:100E800099C8ECC8C9EDC9CAEECACBEFCBE4FCFDEA
:100E9000EB2525FFEA3524121472E47B0A12144A6A
:100EA0008E538F549002D31213C012145912151C72
:100EB0001213CA121459020FE012151C1213CA128F
:100EC00014599001101213B2FFAEF09002D3121316
:100ED000F1FBD3120B385003020FF012139E1215C0
:100EE00058FE1215E64003020FF090010D1213B2E6
:100EF000FFAEF07C007D02120B99C8ECC8EDC0E09B
:100F0000EEC0E0EFC0E012139E121558FEE4FCFDA7
:100F1000D0E0FBD0E0FAD0E0F9EB2FFFEA3E12146C
:100F200072E47B0312144A90010D1213CA1214D4F6
:100F300090010D1213B2D39430E5F094754008740B
:100F40007575F030120A35900189E0605A90018D74
:100F50001214AF9400EE9400404D90010D1213B2A4
:100F6000121558FE1232289002D7EEF0A3EFF0903F
:100F7000010D1213B212141195F050101215C14048
:100F80000B1213C7F9E475F0051209FD90010D125B
:100F900013B2FFD312141395F0400CD31215C140B5
:100FA000061213C7121679900183E0D394004030E3
:100FB0001215B4502B9001101213B2FF9001ABE048
:100FC000245A12155F1213AFD39FE5F09E400E1204
:100FD00013C775F0281216892428121509121682D3
:100FE00020090D121693500812156F7003020CC9D8
:100FF000900188E0041213D2E490016112142E9043
:10100000013504F09002241214DE2212139EFDAC6E
:10101000F0D39FEC9E40329001101213B212165E74
:10102000D3EF9430EE9475400C9002D57475F0A314
:101030007430F0800D1213A91215589002D5F0A348
:10104000EFF0E49001A30210BA1213AFFFAEF090DC
:1010500001101213B2FDACF0C39FFFEC9EFED3EF64
:101060009410EE9427400C9002D57427F0A37410CE
:10107000F080121213AFFFC3ED9FFEEC95F09002CB
:10108000D5F0A3CEF09002D5E0FFA3E09001A3CF6E
:10109000F0A3EFF0300018D3E0942C9001A3E0947B
:1010A0000140139001A57427F0A37410F08007E4A9
:1010B0009001A5F0A3F0E49002D5F0A3F0900134E4
:1010C000E0605F121450C39488EE648094935006DD
:1010D0009001827420F0D312159E401D90010412DD
:1010E00014AF9002D6E09F9002D5E09E400B900294
:1010F00026E4F0A37464F0801BD3900227E09400F0
:10110000900226E09400400C90010D1213B2900260
:10111000D512153CD20B90022C7403F0A374E8F0A6
:1011200080179001827420F090022A7401F0A37459
:10113000F4F07A0079481213E6121450D312159F76
:10114000500302137490010D1213CA1214D4C390E9
:1011500002D6E094C89002D5E0648094805007E401
:10116000900186F0A3F0900186E0FEA3E0FF9002DC
:10117000D6E02FF09002D5E03EF0E0FEA3E0FF12B3
:101180001672E47BB87A88F9F8C3120B22500A90E1
:1011900002D57488F0A374B8F0D3900229E09400CB
:1011A000900228E09400500790001BE0B420181231
:1011B0001450C39496EE64809480500B12159E4098
:1011C0002F7C007D0A801E300026900134E07020C4
:1011D0009001AAE0FCA3E0FD121450C39DEE9C50C8
:1011E0000F7C007D641209869002D5EEF0A3EFF02B
:1011F000900134E0700302134E90022AE07002A3C3
:10120000E0600302134E121450121672E54B2FF5D4
:101210004BE54A3EF54AE5493DF549E5483CF54888
:10122000054DE54D7002054CC3E55194F4E550942D
:101230000150030212F0AE4CAF4DCBEFCB12148035
:10124000AF4BAE4AAD49AC48120A909002D7EEF0CF
:10125000A3EFF0C3E54F9FFFE54E9EFE12322890AC
:1012600002D9EEF0A3EFF0D39450EE94005070E565
:101270004F454E606AD39002D8E0954F9002D7E078
:10128000954E40291214AC9450EE94005051D3EF77
:10129000943CEE94004004740A800BD3EF9428EE43
:1012A0009400403B7405254FF54FE4802E1214AC9A
:1012B0009450EE94005028D3EF943CEE9400400AF2
:1012C00074F6254FF54F74FF8011D3EF9428EE94F8
:1012D00000400C74FB254FF54F74FF354EF54EE47E
:1012E000F54BF54AF549F548F54CF54DF550F551F6
:1012F000D3E54F9400E54E9400402A9002D6E09545
:101300004FFF9002D5E0954EFE123228121668501B
:1013100008121613E4F552800CE552C394035005ED
:101320001216130552E5DB20E23D9001161213B2AE
:101330007D0712158A9002D51213FF121672EB7BED
:101340000812143E9001161213CAF9EE8014E5DB60
:1013500020E2149002D5E0F9A3E0FF9001161213E9
:10136000CAC98FF0120A359001161213B224A8FFD1
:10137000E5F0801D90010D1213CA1215359001166B
:101380001213CA1215359002D6E024A8FF9002D598
:10139000E03461F99001131213CA1214592290011A
:1013A00010E0FBA3E0FAA3E0F91209D2FFAEF0903F
:1013B000010AE0FBA3E0FAA3E0F90209D2900136AA
:1013C000A3A3E0F9A3E0FF900110E0FBA3E0FAA3E0
:1013D000E022F07E007F057D007B007A00795712C5
:1013E0000BC67A00795C7E007F0B7D007B00020BD0
:1013F000C6E4FCFDE0F8A3E0F9A3E0FAA3E022C80C
:10140000ECC8C9EDC9CAEECACBEFCBE0FEA3E0FF42
:1014100022FFC390018EE09F90018DE02243AB023A
:101420005389FD5395FD5396FD2290018BE4F0A363
:10143000F0A3F0A3F022A3F0A37401F0A3222FFFE6
:10144000EA3EFEE93DFDE83CFCE4FAF9F8020A90C8
:101450009002D5E0FEA3E0FF22C98FF0020A35E535
:101460000A25E02428F8E6FE08E622F9EB2FFFEA39
:1014700035F0FEED39FDEC38FC22A3E0FEA3E0FBE5
:10148000CAEECAE4F9F822902ECAF0902EE774084A
:10149000F0902EEAF0902EE8F0902EEBF0902EC413
:1014A000229002227402F0A37458F0229002D9E034
:1014B000FEA3E0FFD322902E427D14E0FEA3E0FFC6
:1014C0007C000209747F087A0179367E007D007BFA
:1014D00001020BC6F9EE8FF0020A359001AAE4F082
:1014E000A374C8F022902EC07402F022123214901D
:1014F0002EC07419F022E50D25E02473F582E43442
:1015000001F583E0FEA3E0FF22F0900184E03400C7
:10151000F0E0FFA3E0A3CFF0A3EFF0229002D3A36B
:10152000A3E0F9A3E0FF90010A22E0FCA3E0FDA301
:10153000E0FEA3E022F9E4F5F0020A35FFE5F0F061
:10154000A3EFF022FEE433FDE433FC780122E4F55E
:101550000EF50DF50CF50B22C39FFFE5F09E22FD65
:101560009001AAE03400FCED2FFFEC35F0FE229054
:10157000001BE06420229002247402F0A374BCF0EB
:1015800022900108E0FCA3E0FD22FFAEF07C000207
:101590000B99AB0EAA0DA90CA80BD3020B38EF9434
:1015A00000EE64809480229002D6E0940A9002D5E6
:1015B000E0940022900185E094DC900184E09405A1
:1015C000229002D8E0940A9002D7E0940022E52706
:1015D0002488FFE5263413FED322900108E0FFA300
:1015E000E0900179CF22D39001ABE09F9001AAE077
:1015F0009E22902EC2F0902EC77401F022900165B9
:10160000E562F0A3E563F02225E02428F8A60F08A0
:10161000A610229002D5E54EF0A3E54FF022E4900B
:101620000228F0A3F022900104E4F0A37496F022C3
:10163000F9746175F0A8020A3590003A7410F0222E
:10164000F0A3F090022EF0A3F022FEEF2401FFE4BD
:101650003EC31322902EC0E4F0902E1EE022FFC362
:10166000ED9FFFEC95F0FE22C3EF9450EE64809462
:101670008022EE3395E0FDFC22F974FF75F0FB0249
:1016800009FD9001837464F022F9E41209FD9001D0
:1016900085E022C3E556956CE555956B229002D303
:1016A000020B5C1214E5902EC4E4F0A3F053997F72
:1016B000F50BF50CF50DF50EF50A12086612141D62
:1016C0001214EF902EC0E030E2F9902EC0E4F04307
:1016D0008902121423438002902E02E0FEA3E0252B
:1016E0000CF50CEE350BF50B1214EC902EC0E0301F
:1016F000E2F9121654FEA3E0250EF50EEE350DF5B7
:101700000D050AE50AC3940440B0439980902EC5A4
:10171000E4F0E527240CFFE52634FEFED3EF950C1C
:10172000EE950B401590016FE07002A3E0701290EF
:10173000016F04F0A374F4F08007E490016FF0A34C
:10174000F09001611214AF9400EE94004031CBEFA1
:10175000CBCAEECAEB250EFFEA350D121544120B6B
:10176000498E0D8F0EA3E0FEA3E0FBCAEECAEB2567
:101770000CFFEA350B121544120B498E0B8F0CE54A
:101780000C2527FFE50B3526FEC3EF950EF510EE71
:10179000950DF50F1215CEE5109FE50F9E40048EB6
:1017A0000F8F1090015FE50FF0A3E510F0A3E50D9A
:1017B000F0A3E50EF0A3E50BF0A3E50CF0D3900148
:1017C0006CE0940090016BE094004074900134E070
:1017D000600F90010D1213B2C394A0E5F0940F5066
:1017E00009E4900169F0A3F08056D390016AE09477
:1017F00000900169E09400403390016BE0FEA3E0AB
:10180000FF121982CAEECACBEFCB900169E0FEA3AA
:10181000E0FF7C007D03120974EB2FFFEA3EFEEF30
:101820007802CEC313CE13D8F9FF800C90016BE081
:10183000FEA3E0FFC3121982900169EEF0A3EFF05E
:10184000D390016AE0940A900169E0940090016DE0
:1018500040097428F0A37446F080077408F0A3745C
:1018600010F090015FE0FFA3E090016BCFF0A3EFD9
:10187000F0AF10AE0F122702900165EEF0A3EFF06B
:1018800090001BE0B420031213E2900165E0FEA378
:10189000E0FFE4FCFDE55F2FF55FE55E3EF55EED04
:1018A000355DF55DEC355CF55C0561E56170020563
:1018B00060C3E56594E8E5649403402AAE60AF61D7
:1018C000CBEFCB121480AF5FAE5EAD5DAC5C120AA5
:1018D000908E628F63E4F55FF55EF55DF55CF56013
:1018E000F561F564F565D3E5639400E56294004025
:1018F00074900166E09563FF900165E09562FE904B
:1019000002D9F0A3EFF090016DE0FDFBC3E49BFB77
:10191000E49400FAD3EF9BEA6480F8EE6480984088
:101920001BEDFF9002DAE09F7480F89002D9E0642A
:10193000809850081215FDE4F56680299002D9E0E0
:10194000FEA3E0FF12322890016EE0FDD3EF9D74FC
:1019500080F86E984003756603E566C394035005EE
:101960001215FD0566900165E0F546A3E0F54778A0
:10197000287C007D007B007A00792A7E007F1E0291
:10198000094E900160E09FFF90015FE09EFE1232E1
:1019900028229001911213F4FBE9C0E0EAC0E0EBC9
:1019A000C0E09001251213B2FFE4FCFDD0E0FBD0B3
:1019B000E0FAD0E012146B900191120B5C9001964A
:1019C000E004F07006900195E004F0900197E0705B
:1019D00002A3E06003021BC490019112152AFFEEDE
:1019E000C0E0EFC0E012147AD0E0FFD0E0FE120AAF
:1019F00090900191120B5C900191A3A3E0FFA3E0F2
:101A000090018FCFF0A3EFF0A3120B68000000004D
:101A1000E4900195F0A3F0A3F0A374C8F090022025
:101A2000E07002A3E06003021BC4900199E0700221
:101A3000A3E06003021BC4900134E07003021AEBC0
:101A400090018BE0FEA3E0FF4E702290018FE0FD3D
:101A5000A3E090018BCDF0A3EDF090010D1213B235
:101A6000FD90018DE5F0F0A3EDF0021AF290018FE8
:101A7000E0FCA3E0FDC3EF9DFFEE9CFE1232289038
:101A8000019B1213CA1214D4900189E070269001B0
:101A90009B1213B2C3940DE5F09400500F90010D0A
:101AA0001213B2FF90018D12153D801E90018974B2
:101AB00001F0801690019B1213B2C39402E5F094DA
:101AC00000500712142A900189F090018F1214AF70
:101AD00090018CE09F90018BE09E4007E490018A8A
:101AE000F0800F90018A7401F0800712142A90018F
:101AF00089F0900189E07003021BC490018D1214DB
:101B0000AF9400EE94005003021BC490010D121319
:101B1000B2121558FE1232289002D5EEF0A3EFF063
:101B2000A3E4F0A37464F090010D1213B2FFAEF0C1
:101B3000D31214139E40159002D7E0FCA3E0FDD30E
:101B40009002D6E09D9002D5E09C501A1214129E8D
:101B5000503A9002D7E0FEA3E0FF9002D6E09F90BB
:101B600002D5E09E4026E4900189F090018BF0A31D
:101B7000F090010D1213B212141195F090019974A6
:101B800001F0A3742CF0E490018AF02290010D1270
:101B900013B2FFD312141395F0400CD31215A740C3
:101BA000061213C712167990010D1213B2121411F6
:101BB00095F050101215A7400B1213C7F9E475F0F9
:101BC000051209FD2290017BE0FEA3E0FFC394040F
:101BD000EE9400502A121581EF25E0FFEE33FE74DB
:101BE000732FF58274013EF583ECF0A3EDF09001C4
:101BF0007CE004F0700690017BE004F0021D397572
:101C00000D011214F6E50D25E02471F582E434018E
:101C1000F583EEF0A3EFF0050DE50DB404E49001BB
:101C200034E07003021CDF9001101213B2FFAEF01B
:101C3000121581D39FEC9E5003021D32ED9FFFECE5
:101C40009EFED3EF94F4EE94015003021D32A312D2
:101C500013B212165E9002D8F0A3EFF012322812DF
:101C600016685063E49002DAF0A3F09002D8E0FE28
:101C7000A3E0FF123228D3EF9432EE6480948040C8
:101C800025D39002D9E094009002D8E0648094803B
:101C90009002DA4008E4F0A37405F0801074FFF0BD
:101CA000A374FBF08007E49002DAF0A3F01213AF04
:101CB000FF9002DBE02FFE9002DAE035F090017930
:101CC000F0A3CEF0021D391215DAF0A3EFF0900167
:101CD000A8E004F070069001A7E004F0021D39129C
:101CE00013AFFF121581C3EF9DFFE5F09CFE12328A
:101CF00028C3EF9428EE648094805036900110122F
:101D000013B2FFC3900109E09FFF900108E095F036
:101D1000FE123228C3EF9414EE6480948050059034
:101D20000110800390010A1213B2FF900179E5F0CF
:101D300080031215DAF0A3EFF0E4F50CF50BF50AC9
:101D4000F509F50DD390017CE0950D90017BE094B1
:101D500000401E1214F6E4FCFDE50C2FF50CE50B1B
:101D60003EF50BED350AF50AEC3509F509050D8050
:101D7000D3AF0CAE0BAD0AAC09EEC0E0EFC0E09003
:101D8000017B12147BD0E0FFD0E0FE120A908F0C92
:101D90008E0B8D0A8C0922C0E0C083C082C0D0D2D5
:101DA000AF900233E004F0D3900221E0940090025F
:101DB00020E09400400CA3E024FFF0900220E034E7
:101DC000FFF0D3900223E09400900222E0940040C0
:101DD0000CA3E024FFF0900222E034FFF0D3900245
:101DE00025E09400900224E09400400CA3E024FF3E
:101DF000F0900224E034FFF0D3900227E0940090AA
:101E00000226E09400400CA3E024FFF0900226E0BC
:101E100034FFF0D3900229E09400900228E094006F
:101E2000400CA3E024FFF0900228E034FFF0D390B0
:101E30000231E09400900230E09400400CA3E024D2
:101E4000FFF0900230E034FFF0D390022FE09400D6
:101E500090022EE09400400CA3E024FFF090022EAC
:101E6000E034FFF0D390022BE0940090022AE0943B
:101E700000400CA3E024FFF090022AE034FFF09031
:101E80000183E0D394014003E014F0900182E0D399
:101E900094004003E014F0C3E56594E8E56494031E
:101EA00050080565E56570020564C3E55194F4E5E5
:101EB00050940150080551E55170020550D390012E
:101EC00098E09400900197E09400400CA3E024FF78
:101ED000F0900197E034FFF0D390019AE0940090E5
:101EE0000199E09400400CA3E024FFF0900199E0F8
:101EF00034FFF0D3900170E0940190016FE0940002
:101F0000400CA3E024FFF090016FE034FFF0D39089
:101F1000022DE0940090022CE09400400CA3E024F9
:101F2000FFF090022CE034FFF0D39001A6E0940083
:101F30009001A5E09400400CA3E024FFF09001A5DF
:101F4000E034FFF0D39001ADE094019001ACE09457
:101F500000400CA3E024FFF09001ACE034FFF0D08F
:101F6000D0D082D083D0E0327E007FFF7D007B0125
:101F70007A007904120BC69002E77400F0A374048F
:101F8000F09001D37401F0A37400F0A374B8F09042
:101F900001D97401F0A37400F074AC12301A74000B
:101FA000F0A37494F09001D67401F0A37400F0A330
:101FB00074C6F09001DF7401F0A37400F074D212C3
:101FC000301A7400F0A3741F12301B7401F0A37454
:101FD00002F0902DE0E493FF9002E7E0FCA3E0FD27
:101FE000F5828C83A3EFF0900002E0FFED24041251
:101FF0002FF4900001E0FFED2405122FF490000370
:10200000E0FFED2406122FF4902DE2E493FFED247F
:1020100012122FF4902DE3E493FFED2414122FF409
:102020009001E87401F0A37400F0A3743CF0E4FFA5
:1020300075F002EFA42401F582E5F0342EF583E477
:1020400093FE74542FF582E43400F583EEF0EF250F
:10205000E0242DF582E4342EF583E493FE12302241
:10206000EEF0123022E0FEEF25E0242CF582E4347D
:102070002EF583E49324C0F582E4342EF583EEF04C
:102080000FEFB416AB902F56E0900058F0902F56FB
:10209000E090006EF0902F56E0900059F0902F568F
:1020A000E090006FF09000FF7401F09000FEF0905F
:1020B000003A7410F090001BF0900028F0A37420F8
:1020C000F09002207413F0A37488F022900134E0A1
:1020D00060761214C5121576900182E07025A3E097
:1020E000702190010D1213B2D39488E5F09413403F
:1020F00012900181E0FF04F0EFD39428400A1216F9
:10210000828005E4900181F0900183E06401600326
:1021100002222DC31215B4400302222D9001101289
:1021200013B2FF9001ABE0243212155F1213AFD34C
:102130009FE5F09E400E1213C775F00A121689240F
:102140000A12150912168222E490018312142EA39A
:10215000F0900181F09001361213F4FBE9C0E0EA3F
:10216000C0E0EBC0E01213AFFFE4FCFDD0E0FBD019
:10217000E0FAD0E012146B900136120B5C90013B38
:10218000E004F0700690013AE004F0900224E07060
:1021900002A3E0600302222D90013612152AFFEE01
:1021A000C0E0EFC0E012147AD0E0FFD0E0FE120AE7
:1021B00090900136120B5C9001101213B22432FF82
:1021C000E435F0FE9001361213F1FBD3120B3840C8
:1021D00039900220E07002A3E0702F200B2C9001B8
:1021E0003DE004F0700690013CE004F0D390013D26
:1021F000E0940590013CE09400401E1213BD1214BF
:1022000059E490013CF0A3F0800F1213BD12145951
:10221000E490013CF0A3F0C20B900136120B680071
:10222000000000E490013AF0A3F012157622121596
:102230004EF515F51685281185291285281385294F
:1022400014F50A12145FFFD3E5149FE5139E4007AF
:102250008E138F14850A16C3E5129FE5119E500751
:102260008E118F12850A15050AE50AB40FD5E4F51B
:102270000FF510F50AE516650A602EE515650A608A
:1022800028E510450F7010E50A25E02428F8E6F54A
:102290000F08E6F510801212145F2510FFE50F3EBF
:1022A00012164AF50FEF13F510050AE50AB40FC52B
:1022B00090017FE50FF0A3E510F0E516C3940C50F4
:1022C00005E516121608E515C3940C5005E5151220
:1022D000160812154EF50A12145FFFC3E5109FFF92
:1022E000E50F9EFE123228D3EF941EEE6480948098
:1022F000400FE4FCFDE50E2510F50EE50D350F80D1
:102300000F12145FFFE4FCFDE50E2FF50EE50D3E08
:10231000F50DED350CF50CEC350BF50B050AE50A62
:10232000C3940F40B2AF6AAE69AD68AC6712159244
:10233000401AE50E956AF50EE50D9569F50DE50C6B
:102340009568F50CE50B9567F50B800312154EE4C7
:102350007F607EEAFDFC121592400BE4750E6075FD
:102360000DEAF50CF50BAE0DAF0E22C0E0C083C038
:1023700082C0D0ECC0E0EDC0E0EEC0E0EFC0E0D243
:10238000AFE5DB30E419D20CC208E5DB30E10280B6
:102390002E9002E6E5DFF09002E9E4F002246FE51A
:1023A000DB30E50FD206300805C20802246FC20CEC
:1023B00002246FC208E5DB30E140E5DB30E010903D
:1023C00002EAE0FF04F01231FEE0F5DF02246F9034
:1023D00002EAE0FFB40819208A16D28A90024874F3
:1023E00001F09002E7E0FCA3E02407123204E4F0DD
:1023F000EF641A707AD20702246F9002E9E0700E3F
:10240000A3E5DFF09002E97401F0D2088061900248
:10241000EAE090306693FFB4FF089002E6E5DFF053
:102420008047EF640F70299002EAE0FFA3E0FCA36D
:10243000E0FD123203E0540FF09002EAE0FF04F0F6
:10244000ED123203E0FFE5DF54F0FEEF4EF0801FA7
:102450009002EAE0FF1231FEE5DFF0EFB4240A90CB
:1024600002227401F0A374F4F09002EAE004F07523
:10247000DBFFD0E0FFD0E0FED0E0FDD0E0FCD0D02C
:10248000D082D083D0E0329002D9EFF09002DEE427
:10249000F0A374FFF0E4A3F0A3F0A304F0A374FF8F
:1024A000F0902EC07402F0902EC37408F0E49002F5
:1024B000DAF0A3F09002DAE0FEA3E0FFC39409EEA5
:1024C00094004003022576EF9407EE940040067EC8
:1024D000007F0180199002DAA3E004FFE47E01C8C6
:1024E000EFC8088006CEA2E713CE13D8F8FF9002FB
:1024F000DCEEF0A3EFF0902EC07419F0902EC0E047
:1025000030E2F99002D9E0FF75F002A42400123005
:1025100009E0FCA3E0FD902EC07402F0D3ED94FF1F
:10252000EC940F40179002DCE0FCA3E0FD75F00294
:10253000EF123006EC8DF01209BC80299002D9E030
:1025400075F002123006C083C082E0FEA3E0FF9067
:1025500002DCE0FCA3E0FDC3EF9DFFEE9CD082D047
:1025600083F0A3EFF09002DBE004F070069002DA53
:10257000E004F00224B47F00227FA17A01790812DE
:1025800014CB90010A7401F0A37400F07444121487
:10259000367400F074461214367400F0A3744812B6
:1025A00014377400F0A374321214377400F0A3745B
:1025B0002E1214377400F0A3742CF09001257401CE
:1025C000F0A37400F0A37426F090019B7401F0A3B3
:1025D0007400F0A374841214377400F0A37486F0AE
:1025E0009001287401F0A37400F0A3741C12143736
:1025F0007400F0A37422F090011C7401F0A3740025
:10260000F0A374361214377400F0A3742A1214372E
:102610007400F0A37438F01214DB90011C1213CA7A
:10262000F9E475F0C8120A3590011F1213CAF9E4D3
:1026300075F064120A351216269001221213CAF997
:10264000E475F096020A359002D5EEF0A3EF12136E
:10265000D29002D5E07002A3E06003122867122C2A
:1026600052E490017BF0A3F07F0F12309C1214A172
:10267000A312157990018312142DA3F0900108E0A4
:10268000F9A3E0FFA31213CA12145990010D1213FB
:10269000CA1215359001131213CA12163090011682
:1026A0001213CA1215359001191213CA12163012DC
:1026B0001639E4900134F0900136120B68000000E6
:1026C00000E490013A12142E9001081213C2121461
:1026D00059E4900135F090023012164090022CF02F
:1026E000A3F0FE7F12FD7B017A017989120BC6905F
:1026F00001251213B290018F12153C90019712140C
:10270000DE229002DBEEF0A3EFF0E55A4559700CA3
:102710009002DBE0F559A3E0F55A80169002DCE068
:10272000255AFF9002DBE0355912164AF559EF138E
:10273000F55A055BE55BD3940A400D855957855AD8
:1027400058E4F559F55AF55BD3E5589400E55794EC
:1027500000405D9002DCE09558FF9002DBE0955769
:10276000FE123228C3EF940AEE64809480AE57AF15
:1027700058501C7C007D03120B999002DB1213FF52
:10278000E4FCFDEB2FFFEA3E12147278028016CBB8
:10279000EFCBCAEECA9002DBE0FEA3E0FFEB2FFF17
:1027A000EA3E121544120B499002DBEEF0A3EFF063
:1027B0009002DBE0FEA3E0FF22D3900221E0940030
:1027C000900220E094004003022866300029900126
:1027D000A5E07002A3E09001AA6009740BF0A37455
:1027E000B8F080077405F0A374DCF0900104740560
:1027F000F0A37414F080061214DB12162690010D5B
:102800001213B2FFAEF01215E64013900134E060EF
:102810001ED3900105E09F900104E09E50119002AC
:1028200028E07002A3E0702790013404F08020902B
:10283000001BE0B4200512161E8006900228121418
:10284000DEE4900134F0900226F0A3F012163990E5
:102850000134E06011900028E090003AB410047454
:1028600010F0227420F0227F01122D55902E42E0AC
:10287000FEA3E024B1FFEE34FE9002D7F0A3EFF008
:1028800012141D53997F12302D1208661214E59010
:102890002EC314F01214EF902EC0E030E2F9902E07
:1028A000C0E4F0902E027D181214BB8E268F277D77
:1028B0000F120B99EF24E0F56AEE34B1F569ED34AF
:1028C000FFF568EC34FFF567438902121423438057
:1028D00002439980902EC5E4F0900107E09000211A
:1028E000F01214B6EF2490FFEE341AF9900128127A
:1028F00013CAC98FF0020A350230F7E493A3F8E453
:1029000093A34003F68001F208DFF48029E493A347
:10291000F85407240CC8C333C4540F4420C8834060
:1029200004F456800146F6DFE4800B01020408102F
:10293000204080902A68E47E019360BCA3FF543F4E
:1029400030E509541FFEE493A360010ECF54C02567
:10295000E060A840B8E493A3FAE493A3F8E493A357
:10296000C8C582C8CAC583CAF0A3C8C582C8CAC5BB
:1029700083CADFE9DEE780BE90023DE014601B14ED
:1029800060432402705D900247E0B4010A90023D6A
:102990001229E4D205D200C203227F02122FB2EF25
:1029A00060077F02123234C205900247E070349013
:1029B000023D7402F0D203C205C2007F031232341A
:1029C0007F03022D047F03122FB2EF60167F0312E4
:1029D0003234900247E090023D7003F080031229E8
:1029E000E4C203227401F07F021232347F02122DFE
:1029F0000422CDEFCD43AD105399EF439A10539B72
:102A0000EF902EC07402F0147E00C8EDC808800557
:102A1000C333CE33CED8F9FF902EC4EEF0A3EFF03F
:102A2000902EC8EEF0A3EFF07410123183902EC0F8
:102A3000E030E2F9902EC0E4F07402F0742012311C
:102A400083902EC0E030E2F9902E00E0FEA3E0FF7C
:102A5000902EC4E4F0A3F0902EC0F0439910539A46
:102A6000EF539BEF5390EF22C10C41024100410212
:102A7000420041023E00410246004201AC03E841EF
:102A8000024800C102C101C1044102470041023DA8
:102A900000C103C100C1054102E9004102EA004250
:102AA00002E40000C106C108C1074102E61041016D
:102AB000030041010710C10BC10A4101A900022610
:102AC00000000467000000004101061041024900B7
:102AD000009001ACE07004A3E06401701190024822
:102AE000E07004D28A04F0E49001ACF0A3F090000E
:102AF0003AE0FC900106E06C603D90003AE0FE9008
:102B00000106F090000BE0900246F0540FF0EEB496
:102B10002005E04420800AECB4100B900246E0440B
:102B200010F090000BF0C28AE4900248F09001ACE3
:102B30007403F0A374E8F0229002D37408F0A3E4C5
:102B4000F0A3743FF0A374DFF0E4FDFCF9758A1084
:102B5000538AEF009002D3E0FEA3E02DF582EE3C15
:102B6000F583E493FF69F90DBD00010CBC37E5BDA9
:102B7000DFE29002D512320BE493699002E770090C
:102B800012320BA37407F0800612320BA3E4F07527
:102B90008A50538AEF0022200A06200303300509D9
:102BA000E4FFFE122647C20A2290022EE07002A322
:102BB000E0600512156F703A200003122F6F122C7F
:102BC000527F0112309C121BC59002D3EEF0A3EF8E
:102BD000F07B017A0279D3122EA09002D312152134
:102BE0001213CA12145912100B1227B91219921289
:102BF00020CC122AD12290021FE024FE6013146020
:102C0000231460272403704990021F7402F01232CB
:102C1000437F017E0012264790021F7403F0E49068
:102C2000023EF02290021F7404F022122978122E24
:102C30005812297890016FE07004A3E06401700CD1
:102C400090016FF0A3F090021F7402F0E490023341
:102C5000F0224389025395FD5396FD4380021231C1
:102C6000BD7F0C1229F2CAEECACBEFCB7F0C122922
:102C7000F2EF2BFFEE3A9002D8F0A3EFF012318F73
:102C8000F91209D245F07006123174EE801812095B
:102C9000D2FBAAF0123174EF2BFFEE3AC313F9EF17
:102CA00013FF12318FC98FF0120A3522123012F53C
:102CB000828E83A3E0B4AA03122B38123012FF12C3
:102CC0002FFDE0B41008EF122FFDE4F0D20A12300D
:102CD00012FF241B122FFFE0700DEF241C122FFF98
:102CE000E0B41003122F2C1230122413122FFFE025
:102CF000FFB410069002477401F0EFB42005E49091
:102D00000247F0229002D3EFF0E024CA12319DE096
:102D100060037F01229002D3E0FF24CA12319D7428
:102D200001F0EF1231A5E493FE740193FFE4FCFD82
:102D3000902F60E0F8A3E0F9A3E0FAA3E02FFFEA08
:102D40003EFEED39EC389002D3E01231B1EEF0A343
:102D5000EFF07F0022CDEFCD12141D12302DED606B
:102D60001C53997F123214902E5EE4F0A374FFF08E
:102D70007F0F122487902EC4E4F043998053997FEB
:102D8000902E42E4F0A374FFF01208667F01122433
:102D90008743890212142343800243998022758B52
:102DA00011902F647440F0E4FEE4FFEF75F003A48B
:102DB000245CF582E43402F583E5822EF582E43565
:102DC00083F583E4F00FEFB40AE10EEEB403DA7F8B
:102DD000099002CAE4F0A3DFFC902F647480F02213
:102DE0000704AB6CE4FF3006169002E7E0FCA3E0BA
:102DF000F5828C83E0FE54F0FFEE540FF0C2062201
:102E0000029103060A160DA00EA60FFF0C020BFF7F
:102E100023F724062504070127082A0828082B0879
:102E200029032C032D082E082F082608021103065B
:102E30000A100D400E800FFF0C020BFF23F4240438
:102E40002504070127102A1028042B0429032C032A
:102E50002D202E202F10262012156F70299001A9E9
:102E6000E070031214A19001A97401F0900029E010
:102E7000B42008122B97120C4780031230CA90021C
:102E8000327401F08017E49001A9F0900029E0B4B9
:102E90002003122B97900232E06002E4F00231E04E
:102EA0009002D5EBF0A3EAF0A3E9F0900222E070E3
:102EB00002A3E07031900135E0602BE4900135F021
:102EC000122C521214A17508017F0112309C121BA2
:102ED000C59002D51213CA1214D40508E508C3948C
:102EE0000F40E612161E22758A50538AEF90000298
:102EF0007411F09000017422F09000037433F0E438
:102F0000F5AB75AC1DF5ADF5AF7589FF75913F75E6
:102F100099FFF59675931CF59BF595F592F59A53E7
:102F200088FCD28A90024804F0D20D2212082EE4C6
:102F3000F5F275F30875EEFF75EF3F75EA81F5F66A
:102F400075EB0700E5EC30E7FBE4F5EC9002E7E019
:102F5000FEA3E0FF241BF582E43EF583E5F3F0EFEA
:102F6000241CF582E43EF583E5F2F075EB30223067
:102F7000073FC207902E42E0FFA3E09002D5CFF0BA
:102F8000A3EFF0E4FF122D551214B6EF2490FFEEDC
:102F9000341AFE9001281213CA1214D41214E590A8
:102FA00002D5E0FFA3E0902E42CFF0A3EFF0121481
:102FB000A122CBEFCB12319AE06036902F60A3A311
:102FC000E0FEA3E0FFEB1231B1E0FCA3E0FDD39FF4
:102FD000EC9E501DC3EF9DFFEE9CFEEB1231A5C38E
:102FE0007401939FE4939E400812319AE4F07F01AC
:102FF000227F0022F582E43CF583EFF022241AF5CB
:1030000082E43EF58322A42440F582E5F0342EF5D7
:1030100083229002E7E0FEA3E022A3F0A37401F074
:10302000A322746A2FF582E43400F583221214E59A
:10303000902EC4E4F0A3F0FF74542FF582E4340022
:10304000F583E0FE75F002EFA42400F582E5F0348C
:103050002EF583E49324C0F582E4342EF583EEF05C
:103060000FEFB416D32200000000FFFFFFFF0000A7
:10307000FFFFFFFFFFFFFFFFFF00FF000000FFFF5C
:10308000000000FFFFFFFFFFFFFF00000000FFFF49
:10309000FFFFFFFFFFFFFFFF000000009002D8EFDF
:1030A000F012302DE4F5099002D8E0FFE509C39F46
:1030B00050071216A3050980EE902EC0E4F01222EC
:1030C0002E900108EEF0A3EFF022E4F5B2F5BA7508
:1030D0008D20438D20538D7F53AAF7F58BE5DB20A0
:1030E000E211200C0EE4F58A758703000000758A52
:1030F00050D20A758B112212084E53A87F122EE768
:1031000012081E12312343A88012323D9000FFE0C6
:10311000600690021F7401F0122DE4122CAC122BE9
:10312000F680F59002E7E0FFA3E09002EBCFF0A37A
:10313000EFF0E4F5DA75DA4043DA2075D74075DA56
:103140005875D90143A90875B80875F8082201F423
:103150000028002801F4009603E801F403E8177042
:10316000006403E8003202580258012C01F403E81D
:10317000271000C89002D8E0FEA3E0FF7C007D0F7E
:10318000020974902EC2F0902EC0E04419F02290F3
:103190000125E0FBA3E0FAA3E02274CA2BF582E448
:1031A0003402F5832225E02462F582E43431F5838C
:1031B0002225E0244AF582E43402F58322902EC0D1
:1031C0007402F0902EC77474F0902ECD74C0F0A3EA
:1031D00074FFF0A3F0902EC37401F0902ECAF02279
:1031E000E5B230E005E5AA20E013E4900234F07582
:1031F000B28E75B6F9F5B743B20143AA0122A3E036
:10320000FCA3E02FF582E43CF58322E0FEA3E0F589
:10321000828E83221214E574121215F274141214A1
:10322000877480F0A3E4F022EE30E707C3E49FFF49
:10323000E49EFE2274CA2F12319DE4F02212324D18
:10324000022D9E12163922D2AF32D2AF320231E0B5
:10325000000000000000000000000000000000006E
:10326000000000000000000000000000000000005E
:10327000000000000000000000000000000000004E
:10328000000000000000000000000000000000003E
:103FD0000000000000000000000000000000008E53
:103FE00000000000000000000000000000000000D1
:103FF00000000000000000000000000000000000C1
:00000001FF