:1007E000006F00000002000088EA00000000000026
:1007F00000000000000000000000000000000000F9
:1008000078FFE4B8200118F6D8F99000007F007E48
:1008100007E4F0A3DFFCDEFA758172022962121F81
:100820009A1225AB9002217401F022022DDD74AAE8
:100830007583F5758255A574557583FA7582AAA5D9
:1008400074A57583F5758255A5220002239D9040FD
:100850007FE493FF64326003EF7002002253A87FAD
:100860000080FD021DC9EE30E707C3E49FFFE49E50
:10087000FE2274CC2F123208E4F022022DDA208AF4
:1008800003020C88900224E07002A3E06003020CD3
:1008900088900222E07002A3E06003020C889001BD
:1008A00071E07002A3E06003020C8812159C6003E3
:1008B000020C88900134E0703090011F1213F9FF90
:1008C000AEF090010D1213F9D39FE5F09E400302A4
:1008D0000C881214FCE490017DF0A3F012164D90E8
:1008E000022812166EF56F8003756F00757014E4A0
:1008F000F5B2F5BA900181E0FEA3E08E57F5588E6F
:1009000024F525900163E0F522A3E0F523C20975E3
:100910008D20438D20758D8043AA08D2AF758B0240
:10092000758EAF20062412159C701F200C1CE5DB71
:1009300020E217758AC4200C0DE5DB20E2087587DC
:10094000030000008006D2098002D209758B117560
:100950008A5053AAF7D3900223E09490900222E0A9
:100960009401400EA3E02470F0900222E034FEF0E7
:100970008007E4900222F0A3F0D390022FE094903D
:1009800090022EE09401400EA3E02470F090022E1D
:10099000E034FEF08007E490022EF0A3F01230A5C0
:1009A000900055E075F006A4902EC3F0A3E4F0A3E8
:1009B000F012146453997F1231B7121526902EC08D
:1009C000E030E2F9902EC0E4F0902E02E0F571A341
:1009D000E0F57243890212146A43800212152390D3
:1009E0002EC0E030E2F9902EC0E4F0AE22AF23FC3E
:1009F0007D03120D7F902E1EE0FCA3E02FFFEC3E46
:100A0000FEEF7802CEC313CE13D8F9F5238E22E57C
:100A1000722527FFE5713526FEC3EF9523F54BEED2
:100A20009522F54AAE24AF25121689EB254BFFEA35
:100A3000354A1214F2120F548E248F25121607E530
:100A4000259FE5249E40048E248F25902EC4E4F03B
:100A5000439980900167E524F0A3E525F0C3E558AC
:100A60009525FFE5579524FE1208668E598F5A1278
:100A700016C54003020C5EAE24AF257C007D10122B
:100A80000FA41216CFAF6EAE6DAD6CAC6B9002D5ED
:100A900012143BFBD3120F439002D540171215617D
:100AA000956EFFEE956DFEED956CFDEC956BFC1271
:100AB00016CF8007120F7300000000E47F607EEA0B
:100AC000FDFC9002D512143BFBD3120F43400A9059
:100AD00002D5120F730000EA601213F67D09121599
:100AE000B79002D512143B7B0A1214851216CF90D0
:100AF0000134E07042AE57AF58FC7D09120FA4C814
:100B0000ECC8C9EDC9CAEECACBEFCBE4FCFDEB25BE
:100B100025FFEA35241214B9E47B0A1214918E578A
:100B20008F589002D51214071214A01215531214E4
:100B3000111214A0020C5E1215531214111214A0FB
:100B40009001101213F9FFAEF09002D5121438FB89
:100B5000D3120F435003020C6E1213E5121585FEDB
:100B600012161F4003020C6E90010D1213F9FFAE16
:100B7000F07C007D02120FA4C8ECC8EDC0E0EEC00E
:100B8000E0EFC0E01213E5121585FEE4FCFDD0E0B5
:100B9000FBD0E0FAD0E0F9EB2FFFEA3E1214B9E403
:100BA0007B0312149190010D12141112150B900178
:100BB0000D1213F9D39430E5F094754008747575EF
:100BC000F030120E4090018BE0605A90018F1214A9
:100BD000DC9400EE9400404D90010D1213F91215B3
:100BE00085FE1208669002D9EEF0A3EFF090010D99
:100BF0001213F912145895F050101215EE400B1202
:100C0000140EF9E475F005120E0890010D1213F997
:100C1000FFD312145A95F0400CD31215EE40061271
:100C2000140E1216AB900185E0D3940040301215DB
:100C3000E1502B9001101213F9FF9001ADE0245AFE
:100C400012158C1213F6D39FE5F09E400E12140E6F
:100C500075F0281216BB24281215401216B420096C
:100C60000D1216C5500812159C700302090F900151
:100C70008AE004121419E49001631214759001358E
:100C800004F090022612151522E709F608DFFA8013
:100C900046E709F208DFFA803E88828C83E709F094
:100CA000A3DFFA8032E309F608DFFA8078E309F27D
:100CB00008DFFA807088828C83E309F0A3DFFA8072
:100CC0006489828A83E0A3F608DFFA805889828AE1
:100CD00083E0A3F208DFFA804C80D280FA80C680DD
:100CE000D4806980F28033801080A680EA809A8068
:100CF000A880DA80E280CA803389828A83ECFAE4B1
:100D000093A3C8C582C8CCC583CCF0A3C8C582C88C
:100D1000CCC583CCDFE9DEE7800D89828A83E4934A
:100D2000A3F608DFF9ECFAA9F0EDFB2289828A83A9
:100D3000ECFAE0A3C8C582C8CCC583CCF0A3C8C573
:100D400082C8CCC583CCDFEADEE880DB89828A8377
:100D5000E493A3F208DFF980CC88F0EF60010E4E37
:100D600060C388F0ED2402B4040050B9F582EB248E
:100D700002B4040050AF2323458223900CD973EFB3
:100D80008DF0A4A8F0CF8CF0A428CE8DF0A42EFE78
:100D900022C2D5EC30E709B2D5E4C39DFDE49CFC4A
:100DA000EE30E715B2D5E4C39FFFE49EFE120FFDBF
:100DB000C3E49DFDE49CFC8003120FFD30D507C306
:100DC000E49FFFE49EFE22C5F0F8A3E028F0C5F002
:100DD000F8E582158270021583E038F022BB010A23
:100DE00089828A83E0F5F0A3E022500687F009E7C4
:100DF0001922BBFE07E3F5F009E3192289828A83F1
:100E0000E493F5F074019322BB010789828A83027F
:100E10000DC7500B09C5F027F7C5F01937F722BBEE
:100E2000FE0D09F8E325F0F3C5F019E338F322F8D5
:100E300089828A8374019325F0C5F0F8E4933822FF
:100E4000BB010A89828A83F0E5F0A3F0225006F7FD
:100E500009A7F01922BBFE06F3E5F009F319227584
:100E6000F008758200EF2FFFEE33FECD33CDCC338B
:100E7000CCC58233C5829BED9AEC99E58298400CF3
:100E8000F582EE9BFEED9AFDEC99FC0FD5F0D6E4D1
:100E9000CEFBE4CDFAE4CCF9A88222B800C1B900B7
:100EA00059BA002DEC8BF084CFCECDFCE5F0CBF918
:100EB0007818EF2FFFEE33FEED33FDEC33FCEB3310
:100EC000FB10D703994004EB99FB0FD8E5E4F9FA3E
:100ED000227818EF2FFFEE33FEED33FDEC33FCC923
:100EE00033C910D7059BE99A4007EC9BFCE99AF9B6
:100EF0000FD8E0E4C9FAE4CCFB2275F010EF2FFF25
:100F0000EE33FEED33FDCC33CCC833C810D7079B8E
:100F1000EC9AE899400AED9BFDEC9AFCE899F80FF1
:100F2000D5F0DAE4CDFBE4CCFAE4C8F922EB9FF586
:100F3000F0EA9E42F0E99D42F0EC6480C86480983B
:100F400045F022EB9FF5F0EA9E42F0E99D42F0E881
:100F50009C45F022E8600FECC313FCED13FDEE138B
:100F6000FEEF13FFD8F122ECF0A3EDF0A3EEF0A317
:100F7000EFF022A8828583F0D083D082120F8A12EC
:100F80000F8A120F8A120F8AE473E493A3C583C5F4
:100F9000F0C583C8C582C8F0A3C583C5F0C583C8A2
:100FA000C582C822EC8EF0A4CCC5F0CCCDF8EFA45D
:100FB000CEC5F02DFDE43CFCE8A42EC8C5F03DFDF7
:100FC000E43CFCEFA4FFE5F028FEE43DFDE43CFC3E
:100FD00022EF4E6012EF60010EEDBB010B89828A99
:100FE00083F0A3DFFCDEFA2289F05007F709DFFC6B
:100FF000A9F022BBFEFCF309DFFCA9F022BC000B28
:10100000BE0029EF8DF084FFADF022E4CCF875F03E
:1010100008EF2FFFEE33FEEC33FCEE9DEC9840051D
:10102000FCEE9DFE0FD5F0E9E4CEFD22EDF8F5F0E3
:10103000EE8420D21CFEADF075F008EF2FFFED33EB
:10104000FD4007985006D5F0F222C398FD0FD5F069
:10105000EA221213E5FDACF0D39FEC9E40329001E2
:10106000101213F9121690D3EF9430EE9475400CD1
:101070009002D77475F0A37430F0800D1213F01243
:1010800015859002D7F0A3EFF0E49001A5021101BD
:101090001213F6FFAEF09001101213F9FDACF0C37D
:1010A0009FFFEC9EFED3EF9410EE9427400C90022D
:1010B000D77427F0A37410F080121213F6FFC3ED5B
:1010C0009FFEEC95F09002D7F0A3CEF09002D7E00F
:1010D000FFA3E09001A5CFF0A3EFF0300018D3E01C
:1010E000942C9001A5E0940140139001A77427F07F
:1010F000A37410F08007E49001A7F0A3F0E490023D
:10110000D7F0A3F0900134E0605F121497C3948885
:10111000EE6480949350069001847420F0D31215ED
:10112000CB401D9001041214DC9002D8E09F900285
:10113000D7E09E400B900228E4F0A37464F0801B7B
:10114000D3900229E09400900228E09400400C9093
:10115000010D1213F99002D7121573D20B90022EC3
:101160007403F0A374E8F080179001847420F09069
:10117000022C7401F0A374F4F07A00794C12142D4F
:10118000121497D31215CC50030213BB90010D1209
:10119000141112150BC39002D8E094C89002D7E046
:1011A000648094805007E4900188F0A3F090018857
:1011B000E0FEA3E0FF9002D8E02FF09002D7E03EDF
:1011C000F0E0FEA3E0FF1216A4E47BB87A88F9F8F9
:1011D000C3120F2D500A9002D77488F0A374B8F090
:1011E000D390022BE0940090022AE09400500790E4
:1011F000001BE0B42018121497C39496EE648094F8
:1012000080500B1215CB402F7C007D0A801E3000D1
:1012100026900134E070209001ACE0FCA3E0FD12C8
:101220001497C39DEE9C500F7C007D64120D91902D
:1012300002D7EEF0A3EFF0900134E07003021395B3
:1012400090022CE07002A3E0600302139512149741
:101250001216A4E54F2FF54FE54E3EF54EE54D3DF8
:10126000F54DE54C3CF54C0551E55170020550C378
:10127000E55594F4E55494015003021337AE50AF92
:1012800051CBEFCB1214C7AF4FAE4EAD4DAC4C129D
:101290000E9B9002D9EEF0A3EFF0C3E5539FFFE55C
:1012A000529EFE1208669002DBEEF0A3EFF0D3949C
:1012B00050EE94005070E5534552606AD39002DAC4
:1012C000E095539002D9E0955240291214D99450D8
:1012D000EE94005051D3EF943CEE94004004740A15
:1012E000800BD3EF9428EE9400403B74052553F512
:1012F00053E4802E1214D99450EE94005028D3EF6A
:10130000943CEE9400400A74F62553F55374FF8024
:1013100011D3EF9428EE9400400C74FB2553F55341
:1013200074FF3552F552E4F54FF54EF54DF54CF599
:1013300050F551F554F555D3E5539400E55294001A
:10134000402A9002D8E09553FF9002D7E09552FED4
:1013500012086612169A5008121641E4F556800CCF
:10136000E556C3940350051216410556E5DB20E20D
:101370003D9001161213F97D071215B79002D7128E
:1013800014461216A4EB7B08121485900116121451
:1013900011F9EE8014E5DB20E2149002D7E0F9A306
:1013A000E0FF900116121411C98FF0120E40900147
:1013B000161213F924A8FFE5F0801D90010D1214F8
:1013C0001112156C90011612141112156C9002D89E
:1013D000E024A8FF9002D7E03461F99001131214C1
:1013E000111214A022900110E0FBA3E0FAA3E0F98F
:1013F000120DDDFFAEF090010AE0FBA3E0FAA3E0DE
:10140000F9020DDD900136A3A3E0F9A3E0FF9001FE
:1014100010E0FBA3E0FAA3E022F07E007F057D0050
:101420007B007A00795B120FD17A0079607E007FB1
:101430000B7D007B00020FD1E4FCFDE0F8A3E0F996
:10144000A3E0FAA3E022C8ECC8C9EDC9CAEECACB32
:10145000EFCBE0FEA3E0FF22FFC3900190E09F905E
:10146000018FE02243AB025389FD5395FD5396FD56
:101470002290018DE4F0A3F0A3F0A3F022A3F0A347
:101480007401F0A3222FFFEA3EFEE93DFDE83CFC9B
:10149000E4FAF9F8020E9B9002D7E0FEA3E0FF22E7
:1014A000C98FF0020E40E50A25E02428F8E6FE0880
:1014B000E622F9EB2FFFEA35F0FEED39FDEC38FCC2
:1014C00022A3E0FEA3E0FBCAEECAE4F9F8229002F0
:1014D000247402F0A37458F0229002DBE0FEA3E033
:1014E000FFD322902E427D14E0FEA3E0FF7C000299
:1014F0000D7FFEE433FDE433FC7801227F087A019E
:1015000079367E007D007B01020FD1F9EE8FF0026B
:101510000E409001ACE4F0A374C8F022902EC07489
:1015200002F02212318D902EC07419F022E50D25A3
:10153000E02475F582E43401F583E0FEA3E0FF22A8
:10154000F0900186E03400F0E0FFA3E0A3CFF0A329
:10155000EFF0229002D5A3A3E0F9A3E0FF90010AE7
:1015600022E0FCA3E0FDA3E0FEA3E022F9E4F5F015
:10157000020E40FFE5F0F0A3EFF022E4F50EF50DCA
:10158000F50CF50B22C39FFFE5F09E22FD9001AC08
:10159000E03400FCED2FFFEC35F0FE2290001BE064
:1015A0006420229002267402F0A374BCF022900101
:1015B00008E0FCA3E0FD22FFAEF07C00020FA4AB2C
:1015C0000EAA0DA90CA80BD3020F43EF9400EE64F2
:1015D000809480229002D8E0940A9002D7E0940090
:1015E00022900187E094DC900186E094052290022D
:1015F000DAE0940A9002D9E0940022902EE7F0906D
:101600002EEAF0902EE822E5272488FFE526341301
:10161000FED322900108E0FFA3E090017BCF22D30C
:101620009001ADE09F9001ACE09E22900167E566DD
:10163000F0A3E567F02225E02428F8A60F08A610FD
:10164000229002D7E552F0A3E553F022E490022A5B
:10165000F0A3F022900104E4F0A37496F022F97450
:101660006175F0A8020E4090003A7410F022F0A3C9
:10167000F0900230F0A3F022902EC4E4F0A322FEFA
:10168000EF2401FFE43EC31322CBEFCBCAEECA2204
:10169000FFC3ED9FFFEC95F0FE22C3EF9450EE6484
:1016A00080948022EE3395E0FDFC22F974FF75F002
:1016B000FB020E089001857464F022F9E4120E0812
:1016C000900187E022C3E55A9570E559956F229005
:1016D00002D5020F6712151C121678F053997FF588
:1016E0000BF50CF50DF50EF50A1231B71214641254
:1016F0001526902EC0E030E2F9902EC0E4F0438928
:101700000212146A438002902E02E0FEA3E0250C30
:10171000F50CEE350BF50B121523902EC0E030E2E0
:10172000F9902EC0E4F0902E1EE0FEA3E0250EF509
:101730000EEE350DF50D050AE50AC3940640AA43E1
:101740009980902EC5E4F0E527240CFFE52634FEB1
:10175000FED3EF950CEE950B4015900171E07002F1
:10176000A3E0701290017104F0A374F4F08007E418
:10177000900171F0A3F09001631214DC9400EE94D8
:1017800000402E121689EB250EFFEA350D1214F2D9
:10179000120F548E0D8F0EA3E0FEA3E0FBCAEECA1B
:1017A000EB250CFFEA350B1214F2120F548E0B8F3F
:1017B0000CE50C2527FFE50B3526FEC3EF950EF54E
:1017C00010EE950DF50F121607E5109FE50F9E40E0
:1017D000048E0F8F10900161E50FF0A3E510F0A3C8
:1017E000E50DF0A3E50EF0A3E50BF0A3E50CF0D3B7
:1017F00090016EE0940090016DE0940040749001BF
:1018000034E0600F90010D1213F9C394A0E5F09439
:101810000F5009E490016BF0A3F08056D390016C57
:10182000E0940090016BE09400403390016DE0FE85
:10183000A3E0FF1219B4CAEECACBEFCB90016BE064
:10184000FEA3E0FF7C007D03120D7FEB2FFFEA3E3D
:10185000FEEF7802CEC313CE13D8F9FF800C9001AF
:101860006DE0FEA3E0FFC31219B490016BEEF0A38C
:10187000EFF0D390016CE0940A90016BE09400903B
:10188000016F40097428F0A37446F080077408F0D3
:10189000A37410F0900161E0FFA3E090016DCFF020
:1018A000A3EFF0AF10AE0F122734900167EEF0A354
:1018B000EFF090001BE0B42003121429900167E0C0
:1018C000FEA3E0FFE4FCFDE5632FF563E5623EF572
:1018D00062ED3561F561EC3560F5600565E56570D3
:1018E000020564C3E56994E8E5689403402AAE64A0
:1018F000AF65CBEFCB1214C7AF63AE62AD61AC6026
:10190000120E9B8E668F67E4F563F562F561F560F4
:10191000F564F565F568F569D3E5679400E56694C7
:10192000004074900168E09567FF900167E095665C
:10193000FE9002DBF0A3EFF090016FE0FDFBC3E44B
:101940009BFBE49400FAD3EF9BEA6480F8EE64809A
:1019500098401BEDFF9002DCE09F7480F89002DB62
:10196000E0648098500812162BE4F56A80299002F2
:10197000DBE0FEA3E0FF120866900170E0FDD3EF0C
:101980009D7480F86E984003756A03E56AC39403FA
:10199000500512162B056A900167E0F548A3E0F5A3
:1019A0004978287C007D007B007A00792A7E007FC0
:1019B00020020D59900162E09FFF900161E09EFEC0
:1019C0001208662290019312143BFBE9C0E0EAC0C2
:1019D000E0EBC0E09001251213F9FFE4FCFDD0E03C
:1019E000FBD0E0FAD0E01214B2900193120F67908E
:1019F0000198E004F07006900197E004F0900199DE
:101A0000E07002A3E06003021BF6900193121561DF
:101A1000FFEEC0E0EFC0E01214C1D0E0FFD0E0FE66
:101A2000120E9B900193120F67900193A3A3E0FF06
:101A3000A3E0900191CFF0A3EFF0A3120F73000089
:101A40000000E4900197F0A3F0A3F0A374C8F09015
:101A50000222E07002A3E06003021BF690019BE00B
:101A60007002A3E06003021BF6900134E0700302F1
:101A70001B1D90018DE0FEA3E0FF4E7022900191AE
:101A8000E0FDA3E090018DCDF0A3EDF090010D12EB
:101A900013F9FD90018FE5F0F0A3EDF0021B249007
:101AA0000191E0FCA3E0FDC3EF9DFFEE9CFE120858
:101AB0006690019D12141112150B90018BE0702697
:101AC00090019D1213F9C3940DE5F09400500F900E
:101AD000010D1213F9FF90018F121574801E9001F1
:101AE0008B7401F0801690019D1213F9C39402E5E6
:101AF000F09400500712147190018BF09001911234
:101B000014DC90018EE09F90018DE09E4007E490F0
:101B1000018CF0800F90018C7401F0800712147119
:101B200090018BF090018BE07003021BF690018F07
:101B30001214DC9400EE94005003021BF690010D89
:101B40001213F9121585FE1208669002D7EEF0A363
:101B5000EFF0A3E4F0A37464F090010D1213F9FF09
:101B6000AEF0D312145A9E40159002D9E0FCA3E0C7
:101B7000FDD39002D8E09D9002D7E09C501A121439
:101B8000599E503A9002D9E0FEA3E0FF9002D8E0BF
:101B90009F9002D7E09E4026E490018BF090018D4B
:101BA000F0A3F090010D1213F912145895F0900162
:101BB0009B7401F0A3742CF0E490018CF02290014E
:101BC0000D1213F9FFD312145A95F0400CD31215CD
:101BD000D4400612140E1216AB90010D1213F91216
:101BE000145895F050101215D4400B12140EF9E44D
:101BF00075F005120E082290017DE0FEA3E0FFC300
:101C00009404EE9400502A1215AEEF25E0FFEE3357
:101C1000FE74752FF58274013EF583ECF0A3EDF0B0
:101C200090017EE004F0700690017DE004F0021D5A
:101C30006B750D0112152DE50D25E02473F582E479
:101C40003401F583EEF0A3EFF0050DE50DB404E4E7
:101C5000900134E07003021D119001101213F9FF7E
:101C6000AEF01215AED39FEC9E5003021D64ED9FA3
:101C7000FFEC9EFED3EF94F4EE94015003021D643A
:101C8000A31213F91216909002DAF0A3EFF01208E3
:101C90006612169A5063E49002DCF0A3F09002DA28
:101CA000E0FEA3E0FF120866D3EF9432EE64809466
:101CB000804025D39002DBE094009002DAE064805B
:101CC00094809002DC4008E4F0A37405F080107466
:101CD000FFF0A374FBF08007E49002DCF0A3F012A5
:101CE00013F6FF9002DDE02FFE9002DCE035F0906D
:101CF000017BF0A3CEF0021D6B121613F0A3EFF0E0
:101D00009001AAE004F070069001A9E004F0021D21
:101D10006B1213F6FF1215AEC3EF9DFFE5F09CFEAC
:101D2000120866C3EF9428EE6480948050369001C8
:101D3000101213F9FFC3900109E09FFF900108E022
:101D400095F0FE120866C3EF9414EE648094805000
:101D500005900110800390010A1213F9FF90017B96
:101D6000E5F08003121613F0A3EFF0E4F50CF50B89
:101D7000F50AF509F50DD390017EE0950D90017DF2
:101D8000E09400401E12152DE4FCFDE50C2FF50C2F
:101D9000E50B3EF50BED350AF50AEC3509F50905BD
:101DA0000D80D3AF0CAE0BAD0AAC09EEC0E0EFC0B6
:101DB000E090017D1214C2D0E0FFD0E0FE120E9B35
:101DC0008F0C8E0B8D0A8C0922C0E0C083C082C0AC
:101DD000D0D2AF900235E004F0D3900223E094001B
:101DE000900222E09400400CA3E024FFF090022235
:101DF000E034FFF0D3900225E09400900224E094B8
:101E000000400CA3E024FFF0900224E034FFF0D364
:101E1000900227E09400900226E09400400CA3E09A
:101E200024FFF0900226E034FFF0D3900229E094E2
:101E300000900228E09400400CA3E024FFF0900200
:101E400028E034FFF0D390022BE0940090022AE0C7
:101E50009400400CA3E024FFF090022AE034FFF04D
:101E6000D3900233E09400900232E09400400CA33F
:101E7000E024FFF0900232E034FFF0D3900231E032
:101E80009400900230E09400400CA3E024FFF09016
:101E90000230E034FFF0D390022DE0940090022C49
:101EA000E09400400CA3E024FFF090022CE034FF0B
:101EB000F0900185E0D394014003E014F090018498
:101EC000E0D394004003E014F0C3E56994E8E568CA
:101ED000940350080569E56970020568C3E55594E7
:101EE000F4E554940150080555E55570020554D3A6
:101EF00090019AE09400900199E09400400CA3E0D6
:101F000024FFF0900199E034FFF0D390019CE0941D
:101F10000090019BE09400400CA3E024FFF09001AE
:101F20009BE034FFF0D3900172E09401900171E0E6
:101F30009400400CA3E024FFF0900171E034FFF026
:101F4000D390022FE0940090022EE09400400CA366
:101F5000E024FFF090022EE034FFF0D39001A8E0DF
:101F600094009001A7E09400400CA3E024FFF090BF
:101F700001A7E034FFF0D39001AFE094019001AEEF
:101F8000E09400400CA3E024FFF09001AEE034FFA9
:101F9000F0D0D0D082D083D0E0327E007FFF7D00B1
:101FA0007B017A007904120FD19002E97400F0A34A
:101FB0007404F09001D57401F0A37400F0A374B818
:101FC000F09001DB7401F0A37400F074AC12305C8B
:101FD0007400F0A37494F09001D87401F0A374001D
:101FE000F0A374C6F09001E17401F0A37400F074E2
:101FF000D212305C7400F0A3741F12305D7401F0D3
:10200000A37402F0902DE0E493FF9002E9E0FCA3BA
:10201000E0FDF5828C83A3EFF0900002E0FFED2459
:1020200004123036900001E0FFED240512303690A6
:102030000003E0FFED2406123036902DE2E493FF1A
:10204000ED2412123036902DE3E493FFED241412A8
:1020500030369001EA7401F0A37400F0A3743CF0F0
:10206000E4FF75F002EFA42401F582E5F0342EF5CB
:1020700083E493FE74542FF582E43400F583EEF08C
:10208000EF25E0242DF582E4342EF583E493FE124F
:102090003064EEF0123064E0FEEF25E0242CF5828F
:1020A000E4342EF583E49324C0F582E4342EF583E2
:1020B000EEF00FEFB416AB902F56E0900058F09072
:1020C0002F56E090006EF0902F56E0900059F0905F
:1020D0002F56E090006FF09000FF7401F09000FE2A
:1020E000F090003A7410F090001BF0900028F0A3DC
:1020F0007420F09002227413F0A37488F0229001EF
:1021000034E060761214FC1215A3900184E070256F
:10211000A3E0702190010D1213F9D39488E5F09497
:10212000134012900183E0FF04F0EFD39428400A9B
:102130001216B48005E4900183F0900185E06401FB
:10214000600302225FC31215E1400302225F900187
:10215000101213F9FF9001ADE0243212158C121306
:10216000F6D39FE5F09E400E12140E75F00A12167B
:10217000BB240A1215401216B422E49001851214F1
:1021800075A3F0900183F090013612143BFBE9C077
:10219000E0EAC0E0EBC0E01213F6FFE4FCFDD0E0A3
:1021A000FBD0E0FAD0E01214B2900136120F679023
:1021B000013BE004F0700690013AE004F090022642
:1021C000E07002A3E0600302225F90013612156105
:1021D000FFEEC0E0EFC0E01214C1D0E0FFD0E0FE9F
:1021E000120E9B900136120F679001101213F92402
:1021F00032FFE435F0FE900136121438FBD3120F93
:10220000434039900222E07002A3E0702F200B2C93
:1022100090013DE004F0700690013CE004F0D390A2
:10222000013DE0940590013CE09400401E1214042E
:102230001214A0E490013CF0A3F0800F12140412D9
:1022400014A0E490013CF0A3F0C20B900136120FF1
:102250007300000000E490013AF0A3F01215A322ED
:1022600012157BF515F51685281185291285281379
:10227000852914F50A1214A6FFD3E5149FE5139ED1
:1022800040078E138F14850A16C3E5129FE5119E31
:1022900050078E118F12850A15050AE50AB410D56C
:1022A000E4F50FF510F50AE516650A602EE51565EB
:1022B0000A6028E510450F7010E50A25E02428F88B
:1022C000E6F50F08E6F51080121214A62510FFE5BA
:1022D0000F3E12167FF50FEF13F510050AE50AB44D
:1022E00010C5900181E50FF0A3E510F0E516C39449
:1022F0000D5005E516121636E515C3940D5005E58B
:102300001512163612157BF50A1214A6FFC3E51036
:102310009FFFE50F9EFE120866D3EF941EEE6480C9
:102320009480400FE4FCFDE50E2510F50EE50D351B
:102330000F800F1214A6FFE4FCFDE50E2FF50EE54D
:102340000D3EF50DED350CF50CEC350BF50B050AD6
:10235000E50AC3941040B2AF6EAE6DAD6CAC6B12BB
:1023600015BF401AE50E956EF50EE50D956DF50D50
:10237000E50C956CF50CE50B956BF50B80031215D0
:102380007BE47F607EEAFDFC1215BF400BE4750E16
:1023900060750DEAF50CF50BAE0DAF0E22C0E0C076
:1023A00083C082C0D0ECC0E0EDC0E0EEC0E0EFC082
:1023B000E0D2AFE5DB30E419D20CC208E5DB30E156
:1023C00002802E9002E8E5DFF09002EBE4F00224B8
:1023D000A1E5DB30E50FD206300805C2080224A1D2
:1023E000C20C0224A1C208E5DB30E140E5DB30E0AD
:1023F000109002ECE0FF04F0123289E0F5DF0224D5
:10240000A19002ECE0FFB40819208A16D28A90024B
:102410004A7401F09002E9E0FCA3E0240712328F35
:10242000E4F0EF641A707AD2070224A19002EBE084
:10243000700EA3E5DFF09002EB7401F0D20880612A
:102440009002ECE090306F93FFB4FF089002E8E553
:10245000DFF08047EF640F70299002ECE0FFA3E00B
:10246000FCA3E0FD12328EE0540FF09002ECE0FF8E
:1024700004F0ED12328EE0FFE5DF54F0FEEF4EF097
:10248000801F9002ECE0FF123289E5DFF0EFB42408
:102490000A9002247401F0A374F4F09002ECE004BA
:1024A000F075DBFFD0E0FFD0E0FED0E0FDD0E0FC37
:1024B000D0D0D082D083D0E0329002DBEFF0900217
:1024C000E0E4F0A374FFF0E4A3F0A3F0A304F0A30E
:1024D00074FFF0902EC07402F0902EC37408F0E4E4
:1024E0009002DCF0A3F09002DCE0FEA3E0FFC394D6
:1024F00009EE940040030225A8EF9407EE940040F3
:10250000067E007F0180199002DCA3E004FFE47ED8
:1025100001C8EFC8088006CEA2E713CE13D8F8FF93
:102520009002DEEEF0A3EFF0902EC07419F0902E22
:10253000C0E030E2F99002DBE0FF75F002A4240075
:1025400012304BE0FCA3E0FD902EC07402F0D3EDFE
:1025500094FFEC940F40179002DEE0FCA3E0FD75C1
:10256000F002EF123048EC8DF0120DC78029900276
:10257000DBE075F002123048C083C082E0FEA3E0C9
:10258000FF9002DEE0FCA3E0FDC3EF9DFFEE9CD0D8
:1025900082D083F0A3EFF09002DDE004F0700690AB
:1025A00002DCE004F00224E67F00227FA37A0179B6
:1025B0000812150290010A7401F0A37400F074442B
:1025C00012147D7400F0744612147D7400F0A3742C
:1025D0004812147E7400F0A3743212147E7400F05A
:1025E000A3742E12147E7400F0A3742CF0900125B5
:1025F0007401F0A37400F0A37426F090019D74019F
:10260000F0A37400F0A3748412147E7400F0A37419
:1026100086F09001287401F0A37400F0A3741C12DA
:10262000147E7400F0A37422F090011C7401F0A3D6
:102630007400F0A3743612147E7400F0A3742A128E
:10264000147E7400F0A37438F012151290011C125D
:102650001411F9E475F0C8120E4090011F12141104
:10266000F9E475F064120E4012165490012212140F
:1026700011F9E475F096020E409002D7EEF0A3EF48
:102680001214199002D7E07002A3E060031228969A
:10269000122C25E490017DF0A3F07F101230DB12A4
:1026A00014CEA31215A6900185121474A3F0900104
:1026B00008E0F9A3E0FFA31214111214A090010D79
:1026C00012141112156C90011312141112165E904F
:1026D000011612141112156C900119121411121610
:1026E0005E121667E4900134F0900136120F730009
:1026F000000000E490013A121475900108121409C8
:102700001214A0E4900135F090023212166E90027D
:102710002EF0A3F0FE7F12FD7B017A01798B120F60
:10272000D19001251213F99001911215739001991E
:10273000121515229002DDEEF0A3EFF0E55E455D87
:10274000700C9002DDE0F55DA3E0F55E801690026E
:10275000DEE0255EFF9002DDE0355D12167FF55D5F
:10276000EF13F55E055FE55FD3940A400D855D5B71
:10277000855E5CE4F55DF55EF55FD3E55C9400E5B0
:102780005B9400405A9002DEE0955CFF9002DDE031
:10279000955BFE120866C3EF940AEE64809480AEE7
:1027A0005BAF5C501C7C007D03120FA49002DD1215
:1027B0001446E4FCFDEB2FFFEA3E1214B9780280C8
:1027C000131216899002DDE0FEA3E0FFEB2FFFEA73
:1027D0003E1214F2120F549002DDEEF0A3EFF090CF
:1027E00002DDE0FEA3E0FF22D3900223E0940090FC
:1027F0000222E0940040030228953000299001A7AE
:10280000E07002A3E09001AC6009740BF0A374B80F
:10281000F080077405F0A374DCF09001047405F0F7
:10282000A37414F0800612151212165490010D12A2
:1028300013F9FFAEF012161F4013900134E0601E32
:10284000D3900105E09F900104E09E501190022A70
:10285000E07002A3E0702790013404F08020900023
:102860001BE0B4200512164C800690022A121515A2
:10287000E4900134F0900228F0A3F0121667900162
:1028800034E06011900028E090003AB41004741015
:10289000F0227420F0227F01122D87902E42E0FE5C
:1028A000A3E024B1FFEE34FE9002D9F0A3EFF012C2
:1028B000146453997F1230A51231B712151C902E53
:1028C000C314F0121526902EC0E030E2F9902EC00D
:1028D000E4F0902E027D181214E88E268F277D10CA
:1028E000120FA4EF24E0F56EEE34B1F56DED34FF78
:1028F000F56CEC34FFF56B43890212146A438002D5
:10290000439980902EC5E4F0900107E0900021F0FB
:102910001214E3EF2490FFEE341AF99001281214F8
:1029200011C98FF0020E40023136E493A3F8E4930C
:10293000A34003F68001F208DFF48029E493A3F8B2
:102940005407240CC8C333C4540F4420C883400424
:10295000F456800146F6DFE4800B010204081020E3
:102960004080902A97E47E019360BCA3FF543F30DF
:10297000E509541FFEE493A360010ECF54C025E087
:1029800060A840B8E493A3FAE493A3F8E493A3C83F
:10299000C582C8CAC583CAF0A3C8C582C8CAC583D0
:1029A000CADFE9DEE780BE90023FE014601B1460DE
:1029B000432402705D900249E0B4010A90023F1284
:1029C0002A13D205D200C203227F02122FF4EF6035
:1029D000077F02120872C205900249E0703490022B
:1029E0003F7402F0D203C205C2007F031208727F57
:1029F00003022D367F03122FF4EF60167F031208B7
:102A000072900249E090023F7003F08003122A1393
:102A1000C203227401F07F021208727F02122D3667
:102A200022CDEFCD43AD105399EF439A10539BEF56
:102A3000902EC07402F0147E00C8EDC8088005C353
:102A400033CE33CED8F9FF902EC4EEF0A3EFF09042
:102A50002EC8EEF0A3EFF0741012325F902EC0E09B
:102A600030E2F9902EC0E4F07402F0742012325F6C
:102A7000902EC0E030E2F9902E00E0FEA3E0FF903F
:102A80002EC4E4F0A3F0902EC0F0439910539AEFB7
:102A9000539BEF5390EF22C10C410243004102448B
:102AA0000041024000410248004201AE03E84102F9
:102AB0004A00C102C101C1044102490041023F0074
:102AC000C103C100C1054102EB004102EC0042021A
:102AD000E60000C106C108C1074102E81041010338
:102AE0000041010710C10BC10A4101AB00022600E1
:102AF00000046B000000004101061041024B000081
:102B00009001AEE07004A3E06401701190024AE00D
:102B10007004D28A04F0E49001AEF0A3F090003A81
:102B2000E0FC900106E06C603D90003AE0FE900110
:102B300006F090000BE0900248F0540FF0EEB42045
:102B400005E04420800AECB4100B900248E04410E9
:102B5000F090000BF0C28AE490024AF09001AE744B
:102B600003F0A374E8F0229002D57408F0A3E4F017
:102B7000A3743FF0A374DFF0E4FDFCF9758A1053F1
:102B80008AEF009002D5E0FEA3E02DF582EE3CF541
:102B900083E493FF69F90DBD00010CBC37E5BDDF8F
:102BA000E29002D7123296E493699002E97009121A
:102BB0003296A37402F08006123296A3E4F0758A6E
:102BC00050538AEF0022200A06200303300509E44F
:102BD000FFFE122679C20A22900230E07002A3E0C2
:102BE000600512159C703A200003122F6F122C25DD
:102BF0007F011230DB121BF79002D5EEF0A3EFF04D
:102C00007B017A0279D5122EA09002D512155812A6
:102C100014111214A01210521227E81219C4122013
:102C2000FE122B00224389025395FD5396FD4380EB
:102C3000021232287F0C122A21CAEECACBEFCB7FB8
:102C40000C122A21EF2BFFEE3A9002DAF0A3EFF0FC
:102C5000900125E0FBA3E0FAA3E0F9120DDD45F0B9
:102C6000700512324B8015120DDDFD12324BFEEF56
:102C70002DFFEE35F0C313FEEF13FFEE8FF0120EB3
:102C80004022900221E024FE601314602314602788
:102C9000240370499002217402F0122DD67F017E28
:102CA000001226799002217403F0E4900240F02291
:102CB0009002217404F0221229A7122E581229A77B
:102CC000900171E07004A3E06401700C900171F058
:102CD000A3F09002217402F0E4900235F022123049
:102CE00054F5828E83A3E0B4AA03122B67123054EA
:102CF000FF12303FE0B41008EF12303FE4F0D20A88
:102D0000123054FF241B123041E0700DEF241C12CE
:102D10003041E0B41003122F2C123054241312301F
:102D200041E0FFB410069002497401F0EFB42005B1
:102D3000E4900249F0229002D5EFF0E024CC123268
:102D400008E060037F01229002D5E0FF24CC12321C
:102D5000087401F0EF123210E493FE740193FFE463
:102D6000FCFD902F60E0F8A3E0F9A3E0FAA3E02FC8
:102D7000FFEA3EFEED39EC389002D5E012321CEE4F
:102D8000F0A3EFF07F0022CDEFCD1214641230A536
:102D9000ED601C53997F12318D902E5EE4F0A37488
:102DA000FFF07F0F1224B9902EC4E4F043998053B2
:102DB000997F902E42E4F0A374FFF01231B77F01A7
:102DC0001224B943890212146A4380024399802273
:102DD00012329F022FB212166722D2AF32D2AF3216
:102DE0000202AB6FE4FF3006169002E9E0FCA3E0BC
:102DF000F5828C83E0FE54F0FFEE540FF0C2062201
:102E0000029103040A150DA00EA60FFF0C020BFF82
:102E100023F724062504070127102A1028082B0869
:102E200029032C032D082E082F082608021103065B
:102E30000A100D400E800FFF0C020BFF23F4240438
:102E40002504070127102A1028042B0429032C032A
:102E50002D202E202F10262012159C70299001ABBA
:102E6000E070031214CE9001AB7401F0900029E0E1
:102E7000B42008122BC612087E800312310990027A
:102E8000347401F08017E49001ABF0900029E0B4B5
:102E90002003122BC6900234E06002E4F002326B91
:102EA0009002D7EBF0A3EAF0A3E9F0900224E070DF
:102EB00002A3E07031900135E0602BE4900135F021
:102EC000122C251214CE7508017F011230DB121B63
:102ED000F79002D712141112150B0508E508C394D8
:102EE0001040E612164C22758A50538AEF90000269
:102EF0007411F09000017422F09000037433F0E438
:102F0000F5AB75AC1DF5ADF5AF7589FF75913F75E6
:102F100099FFF59675931CF59BF595F592F59A53E7
:102F200088FCD28A90024A04F0D20D2212082EE4C4
:102F3000F5F275F30875EEFF75EF3F75EA81F5F66A
:102F400075EB0700E5EC30E7FBE4F5EC9002E9E017
:102F5000FEA3E0FF241BF582E43EF583E5F3F0EFEA
:102F6000241CF582E43EF583E5F2F075EB30223067
:102F7000073FC207902E42E0FFA3E09002D7CFF0B8
:102F8000A3EFF0E4FF122D871214E3EF2490FFEE7D
:102F9000341AFE90012812141112150B12151C90F0
:102FA00002D7E0FFA3E0902E42CFF0A3EFF012147F
:102FB000CE22758B11902F647440F0E4FEE4FFEF95
:102FC00075F003A4245EF582E43402F583E5822ED5
:102FD000F582E43583F583E4F00FEFB40AE10EEEF9
:102FE000B403DA7F099002CCE4F0A3DFFC902F64F5
:102FF0007480F022CBEFCB123205E06036902F6068
:10300000A3A3E0FEA3E0FFEB12321CE0FCA3E0FD73
:10301000D39FEC9E501DC3EF9DFFEE9CFEEB123242
:1030200010C37401939FE4939E4008123205E4F0AC
:103030007F01227F0022F582E43CF583EFF0222419
:103040001AF582E43EF58322A42440F582E5F034AB
:103050002EF583229002E9E0FEA3E022A3F0A37400
:1030600001F0A322746A2FF582E43400F583220074
:10307000000000FFFFFFFF0000FFFFFFFFFFFFFF5B
:10308000FFFF00FF000000FFFF000000FFFFFFFF49
:10309000FFFFFF00000000FFFFFFFFFFFFFFFFFF3C
:1030A000FF0000000012151C121678F0FF74542F58
:1030B000F582E43400F583E0FE75F002EFA424000D
:1030C000F582E5F0342EF583E49324C0F582E434F0
:1030D0002EF583EEF00FEFB416D3229002DAEFF064
:1030E0001230A5E4F5099002DAE0FFE509C39F502C
:1030F000071216D5050980EE902EC0E4F01222606A
:10310000900108EEF0A3EFF022E4F5B2F5BA758D68
:1031100020438D20538D7F53AAF7F58BE5DB20E20A
:1031200011200C0EE4F58A758703000000758A50A3
:10313000D20A758B112212084E53A87F122EE71265
:10314000081E12316243A880122DD09000FFE0606B
:10315000069002217401F0122DE4122CDE122C8252
:1031600080F59002E9E0FFA3E09002EDCFF0A3EF3D
:10317000F0E4F5DA75DA4043DA2075D74075DA58AD
:1031800075D90143A90875B80875F8082212151CED
:10319000902EC27412F0902EC714F0902ECA74169E
:1031A000F074081215FB7404F0902EEBF0902EC40E
:1031B0007480F0A3E4F02212151C902EC27491F0DA
:1031C000902EC77401F0902ECA7415F07410121569
:1031D000FB7408F0902EEBF01216787402F02201C6
:1031E000F40028002801F4009603E801F403E8172E
:1031F00070006403E8003202580258012C01F40305
:10320000E8271000C874CC2BF582E43402F5832241
:1032100025E024F3F582E43431F5832225E0244CC3
:10322000F582E43402F58322902EC07402F0902ED1
:10323000C77474F0902ECD74C0F0A374FFF0A3F0A7
:10324000902EC37401F0902ECAF0229002DBE0C4ED
:10325000F8540FC868FF9002DAE0C454F048229096
:103260002EC2F0902EC0E04419F022E5B230E00505
:10327000E5AA20E013E4900236F075B28E75B6F937
:10328000F5B743B20143AA0122A3E0FCA3E02FF566
:1032900082E43CF58322E0FEA3E0F5828E832202E5
:1032A000326B000000000000000000000000000081
:1032B000000000000000000000000000000000000E
:1032C00000000000000000000000000000000000FE
:1032D00000000000000000000000000000000000EE
:1032E00000000000000000000000000000000000DE
:103FD000000000000000000000000000000000EDF4
:103FE00000000000000000000000000000000000D1
:103FF00000000000000000000000000000000000C1
:00000001FF
